:4000000000100020110000004D0900004D09000080B500AF00F09EFC80B584B000AF021CFB1D1A70224A3B1C0B3312781A70214A3B1C0A3312781A701F4B1B68013BFB60E1
:400040001AE01E4B1868391C0B31FA68131C5B009B18C31801331B780B70184B1868391C0A31FA68131C5B009B18C31802331B780B70FB68013BFB60FB68002B0ADB0F4B59
:400080001968FA68131C5B009B185B5CFA1D12789A42D6D90A4B3A1C0B3212781A60094B3A1C0A3212781A60BD4604B080BDC046CCF1FF0FCDF1FF0FE8160000CC000020EC
:4000C0001CFF0B4020FF0B4080B500AF194B194A12688021C9020A431A601820FFF79CFF154B19221A60052000F072FF134B144A1278D2B21A60052001F0DCF80D4B0D4A97
:400100001168104A0A401A600F4B20221A600F4B10221A600E4B802212061A600D4B802212061A600C4B0D4A1A600D4B0D4A1A60BD4680BD00010B402CFF0B4028FF0B402E
:40014000E5F1FF0FFFFFFBFF080202403002024008010B4004010B40000002400200008040000240CF00008080B586B000AF72B66C4B01221A703B1C173300221A7026E0B1
:400180003B1C17331A78131C5B009B185B00664A9B183B613B691A78597809020A43997809040A43DB781B0613431A1C3B6919795B791B020B439BB2101C191C00F04EFC4E
:4001C0003B1C17333A1C1732127801321A703B1C17331B78022BD3D93B1C173300221A7038E03B1C17331A78131C9B009B185B004E4A9B18FB60FB681A78597809020A4337
:40020000997809040A43DB781B061343BB60FB681A79597909020A43997909040A43DB791B0613437B60BA1CFB68197A5B7A1B020B431380BB1C1B88B9687A68081C111CCF
:400240001A1C00F01BFC3B1C17333A1C1732127801321A703B1C17331B78002BC1D0344A344B101C191C00F01BFC334B802252001A80324B01221A70314BC02292041A60C1
:40028000304B314A1A60314B99221A60304B41221A60304B304A1A60304B01221A60304B11221A602F4B304A1A60304B02221A602F4B31221A602F4B02221A602E4B9922FC
:4002C00012041A602D4B802292021A602C4B802252051A602B4B2C4A1A602C4B802212031A602B4BC02292021A602A4B01221A60294B02221A60294B284A1278D2B20221AD
:400300000A43D2B21A70254B244A1278D2B206210A43D2B21A70FFF7D7FE00F001FCBD4606B080BD1C700F40641400007814000084140000A414000000600F4002600F40B7
:40034000000001400C00014003EE0000100001400000044008000440870D18000C00044000030440080304408E6D180000040440080404401804044000500F4004500F403E
:4003800008500F4030500F400400990034500F4038500F402000004000800F4000700F4010B5064C2378002B07D10548002802D0044800E000BF0121217010BDE00000202B
:4003C000000000005C13000008B5084B002B03D00748084900E000BF07480168002903D0064A002A00D0904708BDC046000000005C130000E4000020C80000200000000046
:4004000080B500AF034B1B685A1C024B1A60BD4680BDC0460001002080B500AF00F0EEF900F0E2F900F02CFA00F086F80023181CBD4680BD80B582B000AF021CFB1D1A70EC
:40044000304BFA1D12781A70FB1D1B78082B55D89A002D4BD3181B689F462C4B181C00F0DBF92B4B181C00F0D7F947E0294B181C00F0D2F9264B181C00F0CEF93EE0264B18
:40048000181C00F0C9F9224B181C00F0C5F935E0224B181C00F0C0F91D4B181C00F0BCF92CE01F4B181C00F0B7F9194B181C00F0B3F923E01B4B181C00F0AEF9144B181C22
:4004C00000F0AAF91AE0184B181C00F0A5F9104B181C00F0A1F911E0144B181C00F09CF90B4B181C00F098F908E0114B181C00F093F9104B181C00F08FF9C046BD4602B067
:4005000080BDC046FC00002024140000601300007013000074130000841300009C130000B4130000C8130000D8130000E8130000081400001C14000080B586B000AF3A1C1D
:4005400008328D4B111C1A1C0423081C111C1A1C00F0EAFE00233B610023FB603B1C00221A6000225A603B1C173300221A703B1C163300221A700020FFF75CFF0020002129
:4005800000F086F9031C3B610120FFF753FF7B4B181C002100F000F900F00EF90220FFF749FF774B1B68FB6000F00EF90320FFF741FFC046724B1B681A1CFB689A42F9D0D9
:4005C0000620FFF737FF3A693B1C0833101C191C042200F06FF90420FFF72CFF3A693B1C101C191C042200F089F935E03B1C17331A7803231340DBB2002B07D13A693B1C12
:400600000433101C191C042200F078F93B1C163300221A7011E03B1C16331B783A1C163212780132391C895C3A1CD1543B1C16333A1C1632127801321A703B1C16331B7863
:40064000062BE8D93B1C0022DA713B1C17333A1C1732127801321A703B1C1A68042313400CD03B1C1A68474B1A40474B1B78191C03230B4045490B439A420BD03B1C1A6812
:4006800004231340B2D13B1C1A683E4B1A40404B9A42ABD13B1C17333A1C1732117803220A401A703B1C17331B78002B15D03B1C3A1C043212681A6039693B1C17331B78EB
:4006C0000422D31A3A1CD2183B1C17331B78081C111C1A1C00F012F90EE03A693B1C101C191C042200F00AF906E03A693B1C101C191C042200F002F93B1C1A6804231340EA
:400700000CD03B1C1A681F4B1A401F4B1B78191C03230B401D490B439A42E6D03B1C1A680423134006D13B1C1A68164B1A40184B9A42DAD03A693B1C0433101C191C0422F8
:4007400000F0DCF80520FFF775FE3B1C1B88082B06D0104B181C00F05FF801235B4206E00720FFF767FE0820FFF764FE0023181CBD4606B080BDC0466014000001040000D9
:40078000000100207F7FFF7F040100203C5CCD2B3A5CCD2B4814000080B582B000AF78603960044B7A681A600023181CBD4602B080BDC0460801002080B500AF002000F05F
:4007C00049FABD4680BDC04680B500AF012000F041FABD4680BDC04680B500AF00F060FA62B6BD4680BDC04680B500AF00F000FC182000F019FC62B6BD4680BD80B500AF25
:40080000012000F011FD022000F00EFD032000F00BFDBD4680BDC04680B584B000AF78607B68002B02D101235B4225E07B68181C00F08CFD021C3B1C0E331A803B1C0C330E
:400840003A1C0E3212881A800EE07B681B78181C00F096F93B1C0E333A1C0E321288013A1A807B6801337B603B1C0E331B88002BEBD13B1C0C331B88181CBD4604B080BD85
:4008800080B500AF00F092F900F064F9BD4680BD80B582B000AF7860396000F0CFFA322000F0E4FCFFF798FF0023181CBD4602B080BDC04680B586B000AFF860B9607A60A9
:4008C0007B687B61002000F04DFB0CE0BB681B78181C00F0EDFA00F005FB7B68013B7B60BB680133BB607B68002BEFD1012000F039FB7B69181CBD4606B080BD90B587B03B
:4009000000AFF860B9607A6000237B61002000F029FB00237B610CE0FF2000F0C9FA7B69BA68D41800F0DEFA031C23707B6901337B617A697B689A42EEDB012000F012FBE4
:400940007B68181CBD4607B090BDC04680B500AFFEE7C04680B586B000AF254B7B61254B3B61234B7B61234B3B6132E03B691B68FB603B695B68BB603B699B683B60002343
:400980007B600CE0FB681A68BB681A60BB680433BB60FB680433FB607B6804337B607A683B689A42EED13B69DB683B6000237B6008E0BB6800221A60BB680433BB607B68F0
:4009C00004337B607A683B689A42F2D13B6910333B617B695A1E9341DBB27A69013A7A61002BC3D100F07AFCFFF716FDFEE7C046010000004017000080B582B000AF0023DE
:400A00007B600FE07B68032B04D8104B7A689200D35800E00E4B0F4A796889008B507B6801337B607B682F2BECD9FFF79DFB0A4B00221A608023DB058022D2051268012123
:400A40000A431A60BD4602B080BDC046000000004D09000000000020C000002080B582B000AF786039607A683B68101C00211A1C00F063FCBD4602B080BDC04680B584B022
:400A800000AFF860B9607A60F968BA687B68081C111C1A1C00F048FCBD4604B080BDC04680B586B000AF7860396000233B6100237B612EE07B699B007A68D3181B68BB60E0
:400AC0003B1C0F33BA681A70BB68FF229343BB6017E03B695B003A68D3181B781A1CBB68D3183A69520039688A1852781A703B6901333B613B1C0F333A1C0F321278013A2D
:400B00001A703B1C0F331B78002BE2D17B6901337B617B69072BCDD9BD4606B080BDC04680B500AFBD4680BD80B500AF00F03EF8BD4680BD80B500AF054B054A1268802169
:400B400009060A431A6000F017F8BD4680BDC0460000064080B500AF064B1B78002B04D1FFF7E2FF034B01221A70FFF7E3FFBD4680BDC0460C01002080B500AFBD4680BD0B
:400B800080B582B000AF7860C046064B1A680F231340082BF9D0044B7A681A60BD4602B080BDC046080206404002064080B500AF174B184A1A60184B00221A60174B0122CC
:400BC0001A60174B174A1A60174B07221A60174B00221A60164B01221A60164B114A1A60154B00221A60154B00221A60144B00221A60144B00221A60134B00221A60134BC1
:400C000000221A60124B00221A60BD4680BDC046000006400B000002400006404800064000030640070000800403064010030640440006400002064004020640880E064002
:400C4000C80E0640480F0640080F0640C80F0640880F064080B584B000AF021CFB1D1A700E4B1B68DAB23B1C0F3340218A431A70FB1D1B789B01DAB240231340D9B23B1C68
:400C80000F333A1C0F3212780A431A70034B3A1C0F3212781A60BD4604B080BD0003044080B500AF00F05CF8054B181C00F01AF8032000F023F800F049F8BD4680BDC04683
:400CC000C50C000080B500AF054B1B68002B03D0034B1B680020984700F04CF8BD4680BD0801002080B582B000AF7860024B7A681A64BD4602B080BD0000002090B585B0DA
:400D000000AF021CFB1D1A700623FB603C1C0B3400F067F9031C23700B4B0B4A1268C021101C8843011CFA1D1078FA68041C9440221C0A431A603B1C0B331B78181C00F0C7
:400D400054F9BD4605B090BD00E400E080B500AF024B01221A60BD4680BDC04600E100E080B500AF024B01221A60BD4680BDC04680E100E080B582B000AF084B1B68D9B2BC
:400D8000FB1D01220A401A70044BFA1D12781A60FB1D1B78181CBD4602B080BD1000044080B500AF084B0F221A7000F0ABF800F05FF800F06DF8054B00221A70044B002207
:400DC0001A70BD4680BDC04680000F4081000F4082000F4090B583B000AFFC1D00F001F9031C2370124B124A1278D2B220210A43D2B21A700F4B0F4A1278D2B210210A4335
:400E0000D2B21A700C4B0C4A1278D2B210210A43D2B21A70FB1D1B78181C00F0E6F800F0C7F800F01DF800F01FF8BD4603B090BD90000F4091000F4092000F4080B500AF6E
:400E4000064B1B78002B04D1FFF7AAFF034B01221A70FFF7BFFFBD4680BDC0461401002080B500AFBD4680BD80B500AFBD4680BD80B582B000AF054AFB1D12781A70FB1DD4
:400E80001B78181CBD4602B080BDC04661000F4080B582B000AF054AFB1D12781A70FB1D1B78181CBD4602B080BDC04662000F4080B582B000AF021CFB1D1A70C046074B7C
:400EC0001B78DBB21A1C04231340F8D0044BFA1D12781A70BD4602B080BDC04661000F4042000F4080B582B000AF054AFB1D12781A70FB1D1B78181CBD4602B080BDC0463F
:400F000052000F4090B583B000AF01E0124B1B78124B1B78DBB21A1C20231340F6D1FC1D00F05FF8031C23700D4B0D4A1278D2B201210A43D2B21A70094B094A1278D2B207
:400F400001218A43D2B21A70FB1D1B78181C00F04CF8BD4603B090BD52000F4062000F4092000F4080B584B000AF021CFB1D1A700E4B1B68DAB23B1C0F3310218A431A70CA
:400F8000FB1D1B781B01DAB210231340D9B23B1C0F333A1C0F3212780A431A70034B3A1C0F3212781A60BD4604B080BD0003044080B500AF044B044A1268802109060A4320
:400FC0001A60BD4680BDC04600000240000000000230800804D0C0460138FDD1C046C0467047EFF3108072B6704780F31088704780B500AF044B044A1268802109060A4386
:401000001A60BD4680BDC04608010B4080B500AF044B044A1268802109060A431A60BD4680BDC04604010B4090B587B000AF786030233B617B68022B00D8C8E07B68302BD4
:4010400000D9C4E03C1C0B34FFF7CBFF031C23700023FB6011E0614AFB68D3181B781A1C5F4B19683F230B409A4203D1FB6803333B6105E0FB680133FB60FB682D2BEAD9A7
:40108000584B1B78DBB21A1C7B689A420AD3564A3B1C173312781A70544A3B1C163312781A703FE0524B1B78DBB21A1C7B689A420AD3504A3B1C173312781A704E4A3B1C08
:4010C000163312781A702DE04C4B1B78DBB21A1C7B689A420AD34A4A3B1C173312781A70484A3B1C163312781A701BE0464B1B78DBB21A1C7B689A420AD3444A3B1C1733C1
:4011000012781A70424A3B1C163312781A7009E0404A3B1C173312781A703F4A3B1C163312781A703B692A2B0BD97B682A2B08D92B4B2A4A527D1A600520FFF749FF18232F
:401140003B617A683B699A421DD9344B7A68324952181278D2B21A60314B3A1C173212781A60304B3A1C163212781A60052000F0A1F81B4B7A68033A18498A5C1A60052058
:40118000FFF726FF1CE0164B7A68033A13498A5C1A600520FFF71CFF204B7A681E4952181278D2B21A601E4B3A1C173212781A601C4B3A1C163212781A60052000F07AF864
:4011C0003B1C0B331B78181CFFF70FFF02E0002000F042F8BD4607B090BDC046EC1600002CFF0B40C0F1FF0FC1F1FF0FC2F1FF0FC3F1FF0FC4F1FF0FC5F1FF0FC6F1FF0F90
:40120000C7F1FF0FC8F1FF0FC9F1FF0FCAF1FF0FCBF1FF0FCCF1FF0FCDF1FF0F28FF0B401CFF0B4020FF0B4080B582B000AF7860074B1B68002B01DBFFF7E8FE054B054AA8
:4012400012687968C9430A401A60BD4602B080BD04010B4010020B4080B582B000AF021CFB1D1A7001BEBD4602B080BD80B582B000AF786008E00C4B1B68181CFFF7A8FE9D
:401280007B680A4A9B187B607A6880231B029A42F1D8074B1B687A685343181CFFF798FEBD4602B080BDC046DC0000200080FFFFD400002080B582B000AF021CBB1D1A8009
:4012C000BB1D1B88044A12785343181CFFF780FEBD4602B080BDC046D800002070B50E4B0E4D0024E81A85101E1CAC4204D0A100725890470134F8E700F010FA0849094AE9
:401300000E1C541AA5100024AC4204D0A300F05880470134F8E770BD2817000028170000281700003017000010B50023934203D0CC5CC4540133F9E710BD00B58218031C64
:40134000934202D019700133FAE700BD0023C25C0133002AFBD1581E7047000000000000537069205465737420426567696E00000D0A0000537069204F70656E20506173A9
:40138000736564004465766963652044697361626C652050617373656400000044657669636520456E61626C652050617373656400000000537069205772697465205061EE
:4013C000737365640000000053706920526561642050617373656400486F737420495251205061737365640053706920496E6974207265616420636F6D706C657465205047
:401400006173736564000000537069205465737420436F6D706C6574656400000D0A0D0A000000005A0400006C0400007E04000090040000A2040000B4040000C6040000B9
:40144000D8040000EA0400004572726F7220696E205370692054657374696E670D0A00006587785600300F40000280320F40800100400F400004000000320F4068160000F1
:401480008000000001000F4046300F4034310F4012320F4044330F4008400F4007430F4002600F40800F1102130D1503170C1C011D051F0A200124012509270628012E014B
:4014C0003001310F370F3B823E0156025720580459045B045F01811884988508860787108810893D8CC38D288E308F1790149108931094849510970898269A499B029C149C
:401500009D249F0BA010A118A204A404A508A610A810A910AA04B120B2E0B31CB401B503B61EBA88BE10BF01D409D804D904DB04DF0104200544060807020A010D010E18AC
:401540000F01102A1301172519021D4C1F10200121022490262C29042E192F083142320835403620370538803A403C103D803E043F015C825D0A5E1060016640682A6906FD
:401580006A056B25730185488620C0E0C2F1C47FCAE2CCFBCEF0D6F0D8188104850489049104970499019D0A9F10A160A556A709A907AB38AD04B57FB920D904DF0104103F
:4015C000058006820C020D080E080F011502164017241C101F10212024202680271029242A402B402C022D202E0130023160330436803716382039043B013E243F01440AA6
:40160000450846A047024D284E08561257486580661067208C088D209106920593019420980299449B269D08A002A108A20CA708AC80AF10C0D0C2F0C470CABFCCFFCEE7D4
:40164000D0F0D220D87011085F026D088702C410D680DA80E640040254028C03C004D604E202E40210011101044008000040000004741A09000001001A15016A04001040C2
:40168000021004601B0E00001B4000001B0000001B0300340040000000001E700100000F008008080000100043061000020EFBDC3DFFFFFF2200F00804000000400000006D
:4016C00004040404000000010000C00040011011C0010011400140010000000000000000000000000000000004000000030405060708090A0B0C0E0F10111213141516175B
:4017000018191B1C1D1E1F2021222325262728292A2B2E2F3031323334350000F8B5C046F8BC08BC9E467047C9030000F9090000F8B5C046F8BC08BC9E467047A1030000BF
:4017400050170000C8000020180000003800000000000000C0F1FF0F00366E01C05D0000180000000000E02E00000000000000000000000000000000000000000000000023
:401780000000000000000000000000000000000000000000000000000000000000000000000000000000000000000000000000000000000000000000000000000000000029
:4017C00000000000000000000000000000000000000000000000000000000000000000000000000000000000000000000000000000000000000000000000000000000000E9
:4018000000000000000000000000000000000000000000000000000000000000000000000000000000000000000000000000000000000000000000000000000000000000A8
:401840000000000000000000000000000000000000000000000000000000000000000000000000000000000000000000000000000000000000000000000000000000000068
:0200000490303A
:020000007D3150
:0200000490402A
:200000000000000000000000000000000000000000000000000000000000000000000000E0
:0200000490501A
:0C000000000204C81193110104CF8EC44B
:0200000490600A
:0100000001FE
:00000001FF