:400000000010002011000000294B0000294B000080B500AF04F08CFD80B584B000AF021CFB1D1A70224A3B1C0B3312781A70214A3B1C0A3312781A701F4B1B68013BFB60B2
:400040001AE01E4B1868391C0B31FA68131C5B009B18C31801331B780B70184B1868391C0A31FA68131C5B009B18C31802331B780B70FB68013BFB60FB68002B0ADB0F4B59
:400080001968FA68131C5B009B185B5CFA1D12789A42D6D90A4B3A1C0B3212781A60094B3A1C0A3212781A60BD4604B080BDC046CCF1FF0FCDF1FF0F7C5C0000CC00002012
:4000C0001CFF0B4020FF0B4080B500AF194B194A12688021C9020A431A601820FFF79CFF154B19221A60052004F0CAFE134B144A1278D2B21A60052005F034F80D4B0D4AE0
:400100001168104A0A401A600F4B20221A600F4B10221A600E4B802212061A600D4B802212061A600C4B0D4A1A600D4B0D4A1A60BD4680BD00010B402CFF0B4028FF0B402E
:40014000E5F1FF0FFFFFFBFF080202403002024008010B4004010B40000002401900008040000240CF00008080B586B000AF72B6694B01221A703B1C173300221A7026E09D
:400180003B1C17331A78131C5B009B185B00634A9B183B613B691A78597809020A43997809040A43DB781B0613431A1C3B6919795B791B020B439BB2101C191C04F03CFD5E
:4001C0003B1C17333A1C1732127801321A703B1C17331B78022BD3D93B1C173300221A7038E03B1C17331A78131C9B009B185B004B4A9B18FB60FB681A78597809020A433A
:40020000997809040A43DB781B061343BB60FB681A79597909020A43997909040A43DB791B0613437B60BA1CFB68197A5B7A1B020B431380BB1C1B88B9687A68081C111CCF
:400240001A1C04F009FD3B1C17333A1C1732127801321A703B1C17331B78002BC1D0314A314B101C191C04F009FD304B802252001A802F4B01221A702E4BC02292031A60EB
:400280002D4B2E4A1A602E4B99221A602D4BA0221A602D4B2D4A1A602D4B80221A602D4B2D4A1A602D4B02221A602D4B31221A602C4B02221A602C4B2C4A1A602C4B82221A
:4002C00012061A602B4B802212051A602A4B992212041A60294BC02212061A60284B01221A60284B02221A60274B274A1278D2B202210A43D2B21A70234B234A1278D2B2A2
:4003000006210A43D2B21A70FFF7DEFE04F0F6FCBD4606B080BDC0461C700F40B0590000C4590000D0590000F459000000600F4002600F40000001400C00014000EE003004
:40034000100001400000044008000440801DE3000003044008030440800DD80000040440080404401804044000500F400400990004500F4008500F4030500F4038500F40FD
:400380002000004000800F4000700F4010B5064C2378002B07D10548002802D0044800E000BF0121217010BDE0000020000000007855000008B5084B002B03D0074808496D
:4003C00000E000BF07480168002903D0064A002A00D0904708BDC0460000000078550000E4000020C80000200000000080B584B000AF78607B681B68012B02D0022B07D0AD
:400400002AE0194B1B6801221A43174B1A6028E00023FB60144B1B680122191C91430A1C114B1A60104B1B680222191C91430A1C0D4B1A607B680433FB60FA684923D35C6A
:40044000C82B04D1094B181C00F0F2FB09E0084B181C00F0EDFB04E0064B181C00F0E8FBC046BD4604B080BDFC0000207C550000BC550000F055000080B584B000AF78609E
:400480007B681B68012B0FD10023FB600A4B1B6802221A43084B1A607B680433FB60FB685A68064B1A6004E0054B181C00F0C0FBC046BD4604B080BDFC0000200401002073
:4004C0001456000080B582B000AF78603960034B181C00F0ADFBBD4602B080BD3856000080B582B000AF7860064B1B6804221A43044B1A607B685A68034B1A60BD4602B041
:4005000080BDC046FC0000200001002080B584B000AF7860396001235B42FB6000F0FAFA031CFB60FB68002B01DAFB6862E000F071FB00F065FB00F0AFFB00F001FB00F008
:4005400073F8031CFB60FB68002B08DAFA682B4B9A4203D12A4B181C00F06AFBFEE7294B181C00F065FB00200021002200F04CFC031CFB60FB68002B02DBFB68002B04D0E1
:40058000214B181C00F054FBFEE7204B181C00F04FFB00F05BF9031CFB60FB68002B04DA1B4B181C00F044FBFEE71A4B181C00F03FFB194B181C00F03BFB00F089F9031CB4
:4005C000FB60FB68002B04DA144B181C00F030FBFEE700F001FA031CFB60FB68002B04DA0F4B181C00F024FBFEE70E4B181C00F01FFB0023181CBD4604B080BD2EF8FFFF48
:4006000094560000CC560000F856000018570000385700006457000098570000A8570000CC570000F857000080B58EB000AF3B1D00221A60043300221A60043300221A608B
:40064000043300221A60043300221A60043300221A60043300221A60043300221A60043300221A60043300221A60043300221A600433FB1C01221A70BB1C00221A707B1CCD
:4006800000221A703B1C00221A7001235B427B6301235B423B6300200021002200F0B4FB031C3B633B6B002B01DA3B6BC6E03B6B002B2FD03B6B022B07D101E003F054FE35
:4006C000604B1A6802231340F8D0002004F0B8F9031C7B637B6B002B01DA7B6BAEE0FF2000F0EAFC031C7B637B6B002B01DA7B6BA4E000200021002200F086FB031C7B6352
:400700007B6B002B01DA7B6B98E07B6B002B01D04D4B93E0BB1C0C221A707B1C2C221A70B91C7A1C3B1D012000F06CFD031C7B637B6B002B01DA7B6B80E010201121002294
:40074000002304F015F9031C7B637B6B002B01DA7B6B73E0FF2004F051F9031C7B637B6B002B01DA7B6B69E004F0F6F8031C7B637B6B002B07D101E003F0F6FD314B1A6830
:4007800001231340F8D1FB1C04200121012203F033FD031C7B637B6B002B01DA7B6B4DE0BB1C00221A70BB1C1B782020191C0022002304F0DDF8031C7B637B6B002B01DA01
:4007C0007B6B3BE03B1C00221A703B1C01200A21012204F059F9031C7B637B6B002B01DA7B6B2BE0302000210022002304F0C0F8031C7B637B6B002B01DA7B6B1EE00020C0
:40080000002103F049F8031C7B637B6B002B01DA7B6B13E0FF2000F04FFC031C7B637B6B002B01DA7B6B09E000F074F9031C7B637B6B002B01DA7B6B00E07B6B181CBD4666
:400840000EB080BDFC0000202EF8FFFF80B586B002AF3B1C00221A60043300221A60043300221A6004330023FB603B1C154A5A603B1C00221A723B1C00221A70124A3B1CA8
:4008800000210091101C0A21002203F0BBFE031CFB60FB68002B04DAFB680EE003F064FD00E0C046094B1A6801231340F6D0074B1A6802231340F1D00023181CBD4604B0C2
:4008C00080BDC0463458000038580000FC00002080B58EB000AF3B1C143300221A60043300221A60043300221A60043300221A60043300221A60043300221A6004330022A9
:400900001A60043300221A6004333B1C00221A60043300221A60043300221A60043300221A60043300221A60043301235B427B63234B1B680422191C91430A1C204B1A60F3
:40094000204B00221A603B1C1433FA2292001A603B1C143314229A803B1C14331A4ADA803B1C143303229A603B1C14330022DA60164B1A683B1C14331A61391C14313A1CBD
:40098000134B081C022103F029FA031C7B637B6B002B04DA7B6B0FE003F0E6FC00E0C046074B1A6804231340F6D0064B1B68002B01D1084B00E00023181CBD460EB080BD93
:4009C000FC00002000010020B80B000004010020E104000030F8FFFF80B590B000AF3B1C1C3300221A60043300221A60043300221A60043300221A60043300221A600433DE
:400A000000221A60043300221A60043300221A6004333B1C083300221A60043300221A60043300221A60043300221A60043300221A60043300237B6001235B42FB632E4BF6
:400A40001B680422191C91430A1C2B4B1A602B4B00221A603B1C1C33FA2292001A603B1C1C3314229A803B1C1C33254ADA803B1C1C3303229A603B1C1C330022DA60214B36
:400A80001A683B1C1C331A611F4A3B1D101C0B211A1C022302F0A6FF031CFB63FB6B002B01DAFB6B23E07A683B1C1C331A61391C1C313A1C0832154B081C022103F08EF9E0
:400AC000031CFB63FB6B002B04DAFB6B0FE003F04BFC00E0C046084B1A6804231340F6D0064B1B68002B01D1094B00E00023181CBD4610B080BDC046FC00002000010020E1
:400B0000B80B00000401002044580000E10400002FF8FFFF80B500AF064B00221A60064B00221A60054B00221A600023181CBD4680BDC046FC00002000010020040100207E
:400B400080B500AF084B181C00F072F8074B181C00F06EF8064B181C00F06AF8054B181C00F066F8BD4680BD5058000058580000905800009858000080B582B000AF7860CD
:400B80003960044B7A681A600023181CBD4602B080BDC0460801002080B500AF002004F047F9BD4680BDC04680B500AF012004F03FF9BD4680BDC04680B500AF04F0E6FACC
:400BC00062B6BD4680BDC04680B500AF04F044FB72B6BD4680BDC04680B500AF024B01221A70BD4680BDC0462401002080B500AF024B00221A70BD4680BDC0462401002041
:400C000080B500AF04F04CF9182004F065F962B6BD4680BD80B500AF012004F05DFA022004F05AFA032004F057FABD4680BDC04680B584B000AF78607B68002B02D1012358
:400C40005B4225E07B68181C04F08EFC021C3B1C0E331A803B1C0C333A1C0E3212881A800EE07B681B78181C04F078F83B1C0E333A1C0E321288013A1A807B6801337B6002
:400C80003B1C0E331B88002BEBD13B1C0C331B88181CBD4604B080BD80B500AF04F074F804F046F8BD4680BD80B582B000AF786004F046FBFFF788FF0023181CBD4602B04F
:400CC00080BDC04680B582B000AF7860396004F0D7FA012004F022FAFFF76EFF04F0D0FB04F092FB0023181CBD4602B080BDC04680B586B000AFF860B9607A6000237B61DE
:400D000004F0AAFA00237B6116E0C04604F058FB031C002BFAD004F065FB031C1A1C3B1C13331A707B69BA68D3183A1C133212781A707B6901337B617A697B689A42E4DB00
:400D400004F080FA7B68181CBD4606B080BDC04680B586B000AFF860B9607A607B687B610A2004F0DBF90AE0BB681B78181C04F06DFB7B68013B7B60BB680133BB607B685D
:400D8000002BF1D17B69181CBD4606B080BDC04680B582B000AF78607B68154A934218D0134A934206D8134A93420DD0124A93420CD018E0114A934210D0114A93420FD002
:400DC000104A934207D00EE000230DE001235B420AE0022308E002235B4205E0032303E003235B4200E07B68181CBD4602B080BD33333333111111112222222255555555EF
:400E0000666666664444444490B58BB000AFF860B9607A600A237B6200F088FAFB68002B09D1404B1C68BB68181C0021FFF74AFF031C236003E03B4B1B68FA681A600E204E
:400E4000082101F0A9FF031C7B627B6A0A2B01D1354B62E0334B1B689033181C33214422FF2303F027FA031C3B623B6A002B00D0FEE72C4B19687A6A131C5B009B189B0029
:400E8000CB1814333A1C14321A60264B1B689033181C332103F0FEF9031CFB61FB69002B00D0FEE71F4B1B681B68002B32DBFFF773FE1E4B181C0021FFF75EFEFFF774FE83
:400EC0007B68002B04D0174B1B687A68DA6021E0144B19687A6A131C5B009B189B001033CB18181C22211122FF2303F0E3F9031CBB61BB69002B00D0FEE70A4B1A68AC23CC
:400F0000D35C181C02F088F87B69181CFFF740FF031C02E0034B1B681B68181CBD460BB090BDC0461001002030F8FFFFF514000090B587B000AF78607B6808337B61334B1A
:400F40001B689033181C33214422FF2303F0B2F9031C3B613B69002B00D0FEE72B4B1B68DB68002B0BD0294B1B68DC687B691B68181CFFF70DFF031C181CA0472AE0234B72
:400F80001968224B1A68AC23D35C1A1C131C5B009B189B00CB1814331A687B69101C191C042204F0CFFA194B1968184B1A68AC23D35C1A1C131C5B009B189B001033CB18E5
:400FC000181C222103F066F9031CFB60FB68002B00D0FEE70D4B1B689033181C332103F059F9031CBB60BB68002B00D0FEE7074B1B68DB68002B06D0044B1A68AC23D35CDB
:40100000181C02F009F8BD4607B090BD1001002080B586B000AF78607B6808337B61254B1B689033181C33214422FF2303F042F9031C3B613B69002B00D0FEE71D4B196849
:401040001C4B1A68AC23D35C1A1C131C5B009B189B00CB1814331A687B69101C191C042204F070FA134B1968124B1A68AC23D35C1A1C131C5B009B189B001033CB18181CE2
:40108000222103F007F9031CFB60FB68002B00D0FEE7084B1B689033181C332103F0FAF8031CBB60BB68002B00D0FEE7C046BD4606B080BD1001002080B58AB000AF021C91
:4010C000BB1D1A8000237B620A233B62BB1D1B88002B0ED100200021FFF74EFDFFF75CFD454B1B681B68181CFFF7DEFD031C7B627BE03B1C0C33BA1D12881A800E20082174
:4011000001F04AFE031C3B623B6A0A2B01D13B4B6EE0394B1B689033181C33214422FF2303F0C8F8031CFB61FB69002B00D0FEE7314B19683A6A131C5B009B189B00CB1892
:4011400014333A1C08321A602B4B1B689033181C332103F09FF8031CBB61BB69002B00D0FEE7274A3B1C0C33101C191C002200F0EFF9031C7B617B69002B00D0FEE73B1C99
:401180000C331B88002B1FD11B4B19683A6A131C5B009B189B001033CB18181C22211122FF2303F087F8031C3B613B69002B00D0FEE73B1C08331A883B1C0C331A803B1C71
:4011C0000C331B881BB27B623B6ADBB2181C01F023FF00200021FFF7CFFCFFF7DDFC064B1B681B68181CFFF75FFD00F023F97B6A181CBD460AB080BD1001002030F8FFFFC6
:40120000EC58000080B58CB000AFB9607A603B603B1C0F33021C1A707B681B78002B01D1304B5AE0BB68002B55D03B1C143300221A807B681B781A1C3B1C14335A803B1C0B
:40124000143300229A603B1C14333A68DA603B1C143300229A803B1C0F331B789AB23B1C24335A80BB681B781A1C3B1C24339A801D493A1C24323B1C1433081C111C1A1CCC
:4012800000F066F9031CFB62FB6A002B00D0FEE7BB68002B05D03B1C24339B88DAB2BB681A703B1C14335A883B1C14339B889A4207D23B1C14335B88DAB27B681A700B4B2B
:4012C0000BE03B1C14339B88DAB27B681A703B1C24331B8801E001235B42181CBD460CB080BDC0462EF8FFFFF85800002FF8FFFF80B584B000AF78607B68FB60FB681B8853
:40130000732B09D0782B0DD0082B00D009E0FB68181CFFF70DFE06E0FB68181CFFF778FE01E0FEE7C046BD4604B080BD80B586B000AF3E4B3E4A1A603C4B1B68002B00D1DE
:40134000FEE73A4B1B68181C0021B82204F003F9364B1B689133181C112102F09BFF031C3B613B69002B00D0FEE7304B1B689133181C22211122012302F09CFF2B4B1B6852
:401380000433181C332102F085FF031CFB60FB68002B00D0FEE7254B1B689033181C332102F078FF031CBB60BB68002B00D0FEE701F088FF3B1C173300221A702CE01B4B20
:4013C00019683B1C17331A78131C5B009B189B001033CB18181C112102F05CFF031C7B607B68002B00D0FEE7104B19683B1C17331A78131C5B009B189B001033CB18181C8A
:4014000022211122012302F055FF3B1C17333A1C1732127801321A703B1C17331B78092BCDD902F013F9BD4606B080BD100100204001002080B586B000AF02F02FF92C4B06
:401440001B689133181C002102F024FF031C3B613B69002B00D0FEE7254B1B680433181C002102F017FF031CFB60FB68002B00D0FEE71F4B1B689033181C002102F00AFF38
:40148000031CBB60BB68002B00D0FEE73B1C173300221A701BE0164B19683B1C17331A78131C5B009B189B001033CB18181C002102F0F0FE031C7B607B68002B00D0FEE7A2
:4014C0003B1C17333A1C1732127801321A703B1C17331B78092BDED901F03EFF044B00221A60034B00221A60BD4606B080BDC0461001002080B584B000AF7860FFF76CFBC9
:40150000114B1B6897229A5C0132D1B2972299540D4B1A689223D35C012B0CD10A4B1B689133181C222102F0B5FE031CFB60FB68002B06D0FEE7054B181C0021002202F0C6
:40154000EDFEBD4604B080BD10010020B128000080B588B000AFF860B9607A60204B1B680433181C33214422FF2302F0A3FE031CBB61BB69002B00D0FEE7194B1A68922379
:401580000121D154164B1A689C23F968D150144B1A68A023B968D150114B1A68A4237968D15000F045F8031CFB61FB69002B04D101F0F2F8031CFB610CE0094B1B680433D7
:4015C000181C332102F066FE031C7B617B69002B00D0FEE7FB69181CBD4608B080BDC0461001002080B586B000AFF860B9607A600E4B1A6892230021D1540C4B1A689C23B4
:40160000F968D150094B1A68A023B968D150074B1A68A4237968D15000F00AF8031C7B617B69181CBD4606B080BDC0461001002080B58AB000AF834B1A689C23D358002BFB
:4016400000D1FEE77F4B1A687E4B19689C23CB581B88D3807B4B1A687A4B1968A423CB58002B16D0774B19689C23CB589B7803339BB203218B4399B2724B1868A423C358A6
:401680001B8803339BB2032083439BB2CB189BB209E06C4B19689C23CB589B7803339BB203218B439BB21381664B1A689B23D35C012B0CD1634B1A68624B1B681989614B5B
:4016C0001868A423C3585B88CB189BB2138108237B625C4B1B681B68191C5B4A7B6A081C111C1A1CFFF734FB031C3B627A6A3B6A9A4200D0FEE70423FB61524B1B681B68C5
:40170000191C504B1B689A1DFB69081C111C1A1CFFF71EFB031CBB61FA69BB699A4200D0FEE7484B1A68A023D358002B24D0454B1A689C23D3589B78002B1DD0414B1A68FB
:401740009C23D3589B780333032293437B613D4B1B681B68191C3B4B1A68A023D2587B69081C111C1A1CFFF7F3FA031C3B617A693B699A4200D0FEE7324B1A689B23D35C9A
:40178000012B23D12F4B1A689B230021D1542D4B1A68A423D3585B88033303229343FB60284B1B681B68191C264B1A68A423D358DA68FB68081C111C1A1CFFF7C9FA031C17
:4017C000BB60FA68BB689A4200D0FEE71D4B1A68A423D358002B2FD01A4B1A68A423D3581B88002B28D0174B1A689C23D3589B781A1C0323134000D0FEE7124B1A68A42328
:40180000D3581B880333032293437B600D4B1B681B68191C0B4B1A68A423D3589A687B68081C111C1A1CFFF793FA031C3B607A683B689A4200D0FEE70023181CBD460AB09E
:4018400080BDC046100100200459000080B5A4B000AF3A1C0832FB1C101C191C01F068F9031C8421C9190B608422D2191368002B00D0FEE73B1C08331B88082B2BD0B74BA3
:401880001A683B1C083319799323D154B34B1A683B1C0833D9799923D154B04B1A683B1C083399799A23D154AC4B1A689323D35C012B10D9A94B1B689533181C222102F044
:4018C000E9FC031C8021C9190B608022D2191368002B00D0FEE73B1C08331B88181C01F063F89E4B1A68B423D35C012B00D124E2022B03D0002B00D1D4E02FE3974B1A68BF
:40190000A823D358002B00D0FEE7944B1A68A8239349D150914B1A68A823D358002B00D1FEE78E4B1A68A823D2583B1C0833111C1A1C0823081C111C1A1C03F003FE3B1C31
:4019400008335B88013B03229343A02B0AD83B1C08335B88013B9AB23B1C8C3303218A431A8003E03B1C8C33A0221A803B1C08335B88042B1AD03B1C8C331B88FB67774B07
:401980001B681B68191C754B1A68A823D3581A1C0832FB6F081C111C1A1CFFF7A9F9031CBB67FA6FBB6F9A4200D0FEE73B1C08335B88013B03229343A02B2CD93B1C083348
:4019C0005B88013B9BB2032293439AB23B1C8C33A03A1A801AE004237B67604B1B681B68191C3A1D7B6F081C111C1A1CFFF780F9031C3B677A6F3B6F9A4200D0FEE73B1C4E
:401A00008C333A1C8C321288043A1A803B1C8C331B88002BDFD1514B1B689033181C33214422FF2302F046FC031CFB66FB6E002B00D0FEE73B1C08331A884A4B9A420BD05E
:401A40003B1C08331A88484B9A4205D03B1C08331A88464B9A4210D13B1C08331A883F4B1968A823CB58083399780F230B40DBB2101C191C01F002FD06E03B1C08331B887D
:401A8000181C082101F0FAFC344B1B689033181C332102F0FFFB031CBB66BB6E002B00D15DE2FEE73B1C08331B88314A934203D0304A934205D009E03B1C8B330C221A70EE
:401AC00008E03B1C8B3318221A7003E03B1C8B3304221A7004237B66204B1B681B68191C3B1C08331A1D7B6E081C111C1A1CFFF7FFF8031C3B667A6E3B6E9A4200D0FEE7C7
:401B00003B1C083304339B781A1C0F231340072B00DDFEE7114B1B689033181C33214422FF2302F0C7FB031CFB65FB6D002B00D0FEE73B1C08331A883B1C083304339978DF
:401B40000F230B40DBB2101C191C01F097FC031CBB65BB6D002B0FD0FEE7C04610010020F80100200310000003120000061000000B1000000B120000CC4B1968CB4B1A682A
:401B8000AC23D35C1A1C131C5B009B189B00CB1814331B681A683B1C08330433101C191C042203F0CFFC3B1C8B331B78042B25D93B1C8B331B78043B7B65BC4B1B681B6833
:401BC000191CBA4B1868B94B1A68AC23D35C1A1C131C5B009B189B00C31814331B681B681A1D7B6D081C111C1A1CFFF781F8031C3B657A6D3B6D9A4200D0FEE73B1C0833EB
:401C000004331B881BB2002B00DC71E03B1C083304331B8899B23B1C8E3303220A401A803B1C083304331B889AB23B1C8C3303218A431A803B1C8C331B88032B23D93B1C3A
:401C40008C331B88FB64994B1B681B68191C974B1868964B1A68AC23D35C1A1C131C5B009B189B00C31814331B685A68FB6C081C111C1A1CFFF73CF8031CBB64FA6CBB6C69
:401C80009A4200D0FEE73B1C8E331B88002B2FD004237B64854B1B681B68191C3A1D7B6C081C111C1A1CFFF723F8031C3B647A6C3B6C9A4200D0FEE77C4B19687B4B1A685B
:401CC000AC23D35C1A1C131C5B009B189B00CB1814331B685A683B1C8C331B88D1183B1C8E331B883A1D081C111C1A1C03F02AFC6E4B19686D4B1A68AC23D35C1A1C131C3E
:401D00005B009B189B001033CB18181C222102F0C1FA031CFB63FB6B002B00D0FEE7634B1B689033181C332102F0B4FA031CBB63BB6B002B00D114E1FEE75C4B1A689C23B0
:401D4000D358DB780333032293437B63574B1B681B68191C554B1A68A023D2587B6B081C111C1A1CFEF7C4FF031C3B637A6B3B6B9A4200D0FEE74D4B1A68A423D358002BB5
:401D800000D1F0E0494B1A68A423D3585B88002B00D1E8E03B1C08335A88444B19689C23CB58DB78D31A9BB2043B9AB23B1C88331A803E4B1A68A423D3583A1C8832128802
:401DC0009A803B1C883300215B5E002B06DC374B1A68A423D35800225A80C4E03B1C883300215A5E314B1968A423CB585B889A4214DD2E4B1A68A423D35859883B1C8E33D2
:401E000003220A401A80294B1A68A423D3585A883B1C8C3303218A431A800FE03B1C883319883B1C8E3303220A401A803B1C88331A883B1C8C3303218A431A803B1C8C3300
:401E40001B88032B19D93B1C8C331B88FB62174B1B681B68191C154B1A68A423D358DA68FB6A081C111C1A1CFEF742FF031CBB62FA6ABB6A9A4200D0FEE73B1C8E331B88A3
:401E8000002B2FD004237B62084B1B681B68191C3A1D7B6A081C111C1A1CFEF729FF031C3B627A6A3B6A9A4202D0FEE7100100203E4B1A68A423D358DA683B1C8C331B8885
:401EC000D1183B1C8E331B883A1D081C111C1A1C03F038FB3B1C88331B88043B9AB23B1C88331A803B1C883300215A5E2F4B1968A423CB585B889A4235DD3B1C88331988FA
:401F00002A4B1A68A423D3585B88032293439AB23B1C8C338A1A1A801AE00423FB61234B1B681B68191C3A1DFB69081C111C1A1CFEF7DEFE031CBB61FA69BB699A4200D093
:401F4000FEE73B1C8C333A1C8C321288043A1A803B1C8C331B88002BDFD104E004E0C04602E0C04600E0C046FB1C1B78002B15D0FB1C1B787B610D4B1B681B68191C3A1C87
:401F800008327B69081C111C1A1CFEF7B1FE031C3B617A693B699A4200D0FEE7FEF726FE0023181CBD4624B080BDC0461001002080B5B4B000AFE64B1A68A823D358CC216C
:401FC000C9190B60E24B1A68B023D358002B01D100F0DDFBCC22D21913681B88DD4A934200D19CE2DB4A93421FDCDB4A934200D1BFE0D94A93420BDCD84A934200D16CE38B
:40200000D64A934232DCD64A934200D105E3B3E388221201934200D1C7E0D24A934200D128E1D14A93425ED0A6E3D04A934200D1AAE1CE4A93420CDCCD4A934200D151E2CD
:40204000CC4A934200D18FE3CB4A934200D1C8E292E3CA4A934200D113E2C94A934200D1BCE1C84A934200D1D9E185E3B84B1A68A823D3580833C821C9190B603B1C4433BF
:4020800007221A603A1C4432C821C9190B68111C24311A1C20320623081C111C1A1C03F051FAC823DB191A68C823DB1919682623CB5C391C44310431081C111C1A1C03F0D1
:4020C00041FAC821C9190A682623D15C3A1C44322A23D1549E4B1A68B023D3583A1C4432101C984753E39A4B1A68A823D3580833C422D21913603B1C443308221A603A1C9A
:402100004432C421C9190B68111C24311A1C20320623081C111C1A1C03F014FAC423DB191A68C423DB1919682623CB5C391C44310431081C111C1A1C03F004FAC421C919CD
:402140000A682623D15C3A1C44322A23D154C423DB191A682723D15C3A1C44322B23D1547B4B1A68B023D3583A1C4432101C98470DE3774B1A68A823D3580833C021C919E1
:402180000B603B1C443309221A60C022D21913681A883B1C44339A806D4B1A68B023D3583A1C4432101C9847F1E2694B1A68A823D3580833BC21C9190B603B1C44330433F7
:4021C000181C00214C2203F0C6F93B1C443301221A60BC22D21913681A783B1C44331A71381C44304721BC23DB191A6843234118D2180623081C111C1A1C03F0A3F9BC2186
:40220000C9190B681A1C2332BC23DB1919682223CB5C391C44312731081C111C1A1C03F091F9BC21C9190B689A1CBC21C9190B685B78391C44310631081C111C1A1C03F070
:4022400081F9BC22D21913685A783B1C44335A71BC23DB191A682223D15C3A1C44322623D1543B4B1A68B023D3583A1C4432101C98478CE2364B1A68A823D3580833B821DC
:40228000C9190B603B1C44330433181C00214C2203F061F93B1C443302221A60B822D21913681A783B1C44331A71381C44304721B823DB191A6843234118D2180623081CAE
:4022C000111C1A1C03F03EF9B821C9190B681A1C2332B823DB1919682223CB5C391C44312731081C111C1A1C03F02CF9B821C9190B689A1CB821C9190B685B78391C44316C
:402300000631081C111C1A1C03F01CF9B822D21913685A783B1C44335A71B823DB191A684923D15C3A1C44324D23D154B821C9190A682223D15C3A1C44322623D154044BB9
:402340001A68B023D3583A1C4432101C98471EE210010020B2080000310800002F0800002E0800008108000032080000251800000E10000022180000B30800002D1800001D
:40238000251A00002C180000F64B1A68A823D3580833B422D21913603B1C0C3301221A60B421C9190B681A683B1C0C335A60B422D21913685A683B1C0C339A60B421C919FE
:4023C0000B689A683B1C0C33DA60E64B1A68B023D3583A1C0C32101C9847D8E1E14B1A68A823D3580833B022D21913603B1C0C3302221A60B021C9190B6804333A1C0C325B
:402400000832101C191C102203F09CF8D54B1A68B023D3583A1C0C32101C9847B7E1D14B1A68A823D3580833AC22D21913603B1C0C3304221A60AC21C9190B681A683B1C45
:402440000C335A60AC22D21913685A683B1C0C339A603A1C0C32AC21C9190B68111C0C311A1C08320623081C111C1A1C03F06AF8BC4B1A68B023D3583A1C0C32101C984722
:4024800085E1B84B1A68A823D3580833A822D21913603B1C0C3305221A60A821C9190B681A683B1C0C335A60A822D21913685A893B1C0C33DA813A1C0C32A821C9190B68FB
:4024C000111C08311A1D0623081C111C1A1C03F039F8A44B1A68B023D3583A1C0C32101C984754E19F4B1A68A823D3580833A422D21913603B1D03221A603B1D1A1DA4211C
:40250000C9190B68101C191C042203F01BF8954B1A68B023D3583A1D101C984737E1914B1A68A823D3580833A022D21913603B1C443303221A60A021C9190B681A683B1CD4
:4025400044335A60A022D21913685A683B1C44339A60A021C9190B689A6A3B1C4433DA623B1C44330C33181C0021202202F0F3FFA022D21913681A1C0832A021C9190B681E
:402580005B68391C44310C31081C111C1A1C02F0D9FFA022D21913689B6A002B18D03B1C44333033181C0021202202F0D4FFA021C9190B681A1C2C32A021C9190B689B6A6E
:4025C000391C44313031081C111C1A1C02F0BAFF644B1A68B023D3583A1C4432101C9847D5E0604B1A68A823D35808339C22D21913603B1C443304221A609C21C9190B68C9
:402600001A883B1C44339A80564B1A68B023D3583A1C4432101C9847B9E0524B1A68A823D35808339822D21913603B1C44330433181C00214C2202F08EFF3B1C44330522DB
:402640001A603A1C44329821C9190B68111C24311A1C20320623081C111C1A1C02F072FF9823DB191A689823DB1919682623CB5C391C44310431081C111C1A1C02F062FF3F
:402680009821C9190A682623D15C3A1C44322A23D1549822D21913681A1C28329823DB1919684823CB5C391C44312C31081C111C1A1C02F047FF9821C9190A684823D15C5C
:4026C0003A1C44324C23D154264B1A68B023D3583A1C4432101C984759E0224B1A68A823D35808339422D21913603B1C44330433181C00214C2202F02EFF3B1C4433062268
:402700001A603A1C44329421C9190B68111C24311A1C20320623081C111C1A1C02F012FF9423DB191A689423DB1919682623CB5C391C44310431081C111C1A1C02F002FF4A
:402740009421C9190A682623D15C3A1C44322A23D154044B1A68B023D3583A1C4432101C984714E0100100200A4B1A68A823D358181C01F0BBFA0AE0064B1A68B023D25870
:40278000044B1968A823CB58181C9047C046BD4634B080BD1001002080B584B000AF5AE0414B1A689723D25C3F4B19689823CB5C9A4241D03C4B1A68A8230021D1503A4B38
:4027C0001A68B0230021D150374B1A68B423FF21D154FFF73BF8031CFB60FB68002B00D0FEE7314B1B6898229A5C0132D1B2982299542D4B1A68B423D35C012B0ED12A4BB0
:402800001A6892230021D154274B1B689133181C22211122012301F04DFD1CE0224B1A68B423D35C022B16D1FFF7C2FB1E4B1A68A8230021D1500EE01B4B1B689133181CDA
:4028400022211122FF2301F035FD031CBB60BB68002B00D0FEE7144B1A689223D35C012B9ED0114B1B680433181C332101F012FD031C7B607B68002B00D0FEE70A4B1A68CF
:402880009723D25C084B19689823CB5C9A4205D0064B181C0021002201F040FD0023181CBD4604B080BDC04610010020B128000080B586B000AF78603A4B1B680433181C13
:4028C00033214422FF2301F0F5FC031C7B617B69002B00D0FEE7334B1A68A8230021D150304B1A68B0230021D1502E4B1A68B4230121D1542B4B1A689723D25C294B19684E
:402900009823CB5C9A420ED1264B1B680433181C332101F0BFFC031C3B613B69002B00D0FEE7002339E0FEF791FF031CFB60FB68002B00D0FEE71B4B1B6898229A5C013212
:40294000D1B298229954174B1A68B423D35C022B04D0032B12D0002B10D00EE0114B1A68A823D358002B00D1FEE7FFF721FB0D4B1A68A8230021D15001E0FEE7C046094B6B
:402980001B680433181C332101F084FC031CBB60BB68002B00D0FEE70023181CBD4606B080BDC0461001002080B582B000AF021CBB1D1A803F4B1A68B0230021D150BB1D04
:4029C0001A888023DB0013409BB2002B00D066E0BB1D1B88632B05D1364B1A68B4230321D15462E0BB1D1A88334B9A4209D0BB1D1A88324B9A4204D0BB1D1A88304B9A426D
:402A000005D12C4B1A68B4230021D1544EE0294B1A68B4230221D154BB1D1A88F023DB01134005D1234B1A68B0232649D1503CE0BB1D1A88F023DB011A4080231B019A4208
:402A400005D11C4B1A68B0231F49D1502DE0BB1D1A88F023DB011A4080235B019A4224D0BB1D1A88F023DB011A40C0235B019A421BD1BB1D1A88154B9A4204D0BB1D1A88CE
:402A8000134B9A4205D10B4B1A68B0231149D1500CE0084B1A68B0230F49D15005E0054B1A68B4230121D15400E0C046BD4602B080BDC046100100200A1000000B100000BA
:402AC0000B120000F1120000ED0300002E18000030180000714000007904000080B584B000AF78603B1C0F3300221A7013E03B1C0F331B787A68D3183A1C0F321278013295
:402B000079688A1812781A703B1C0F333A1C0F32127801321A703B1C0F331B78062BE6D97B68073300221A70BD4604B080BDC04680B590B000AF786039600023FB6304236B
:402B4000BB63794B1B681B68191C7A68BB6B081C111C1A1CFEF7CCF8031C7B63BA6B7B6B9A4226D0FEE7FA6B704B9A4200D9FEE7FA6B0323134014D104233B636A4B1B68B7
:402B80001B68191C7B681A1D3B6B081C111C1A1CFEF7AEF8031CFB623A6BFB6A9A4200D0FEE77B68181CFFF799FFFB6B0133FB6300E0C0467B681A68042313400ED07B6841
:402BC0001A685B4B1A40584B19689623CB5C191C03230B4057490B439A420BD07B681A6804231340BFD17B681A68514B1A40524B9A42B8D1FA6B03231340FB63FB6B002B6B
:402C00001BD07B685A687B681A60FB6BBB62464B1B681B68191CFB6B0422D31A7A68D218BB6A081C111C1A1CFEF762F8031C7B62BA6A7B6A9A4228D0FEE704233B623A4B11
:402C40001B681B68191C7A683B6A081C111C1A1CFEF74EF8031CFB613A6AFB699A4214D0FEE704233B61304B1B681B68191C7A683B69081C111C1A1CFEF73AF8031CFB6081
:402C80003A69FB689A4201D0FEE7C0467B681A68042313400ED07B681A68254B1A40224B19689623CB5C191C03230B4021490B439A42D6D07B681A680423134006D17B6843
:402CC0001A681B4B1A401C4B9A42CAD0164B1B6896229A5C0132D1B2962299540423BB61114B1B681B68191C7B681A1DBB69081C111C1A1CFDF7FCFF031C7B61BA697B6938
:402D00009A4200D0FEE7FB6B002B05D0FB6BDBB20422D31ADBB200E000233A6813700023181CBD4610B080BD10010020CF0700007F7FFF7F3C5CCD2B3A5CCD2B80B586B07E
:402D400000AF021CBB1D1A803B1C103300221A603B1C0C33BA1D12881A803B1C0C3300229A703B1C0C330422DA703A1C0C323B1C1033101C191C0022FEF7EAFB031C7B61EF
:402D80007B69002B00D0FEE73B1C10331B881BB2181CBD4606B080BD90B58BB000AF78600A1CFB1C1A703B1C27330A221A70994B1B689033181C33214422FF2301F07AFA47
:402DC000031C3B623B6A002B00D0FEE7914B1A688823D35C092B2DD88E4B19683B1C273388228A5C1A708B4B18683B1C27331A781821131C5B009B189B00C3185B189B78F1
:402E0000092B11D8834B1968824B1C683B1C27331A781820131C5B009B189B00E3181B189A788823CA5416E07A4B1A6888230A21D15410E0774B1B689033181C332101F0D0
:402E400029FA031CFB60FB68002B00D0FEE73B1C27331B78D9E06F4B1C683B1C27331A787B68D9B21820131C5B009B189B00E3181B180A1C1A70FB1C1B78072B5BD8654BD9
:402E800018683B1C27331A781821131C5B009B189B00C3185B18FA1C12785A704BE05D4B1C683B1C27331A785A4B19688923C95C1820131C5B009B189B00E3181B180A1C91
:402EC0009A70544B1A68391C273189230978D154504B1B689033181C332101F0DBF9031CBB61BB69002B00D0FEE74A4B19683B1C27331A78131C5B009B189B001033CB18E4
:402F0000181C22211122FF2301F0D4F9031C7B617B69002B00D0FEE73E4B1B689033181C33214422FF2301F0C5F9031C3B613B69002B00D0FEE7FB1C1B78072B0BD8354B3C
:402F40001A688C23D358FA1C12780121081C9040021C1340A3D12F4B1A688C23D3587A6801210C1C9440221C134003D0FB1C1B78082B94D0FB1C1B78072B0FD8254B1A682A
:402F8000244B19688C23C958FB1C1B780120041C9C40231C19438C23D1500DE01D4B1A681C4B19688C23C9587B680120041C9C40231C19438C23D150164B1C683B1C27338F
:402FC0001A78144B19688A23C95C1820131C5B009B189B00E3181B180A1C9A700D4B1A68391C27318A230978D1540A4B1B689033181C332101F04EF9031CFB61FB69002BE0
:4030000000D0FEE73B1C27331B78181CBD460BB090BDC04610010020B0B586B000AF021CFB1D1A70A64B1B689033181C33214422FF2301F03FF9031C3B613B69002B00D04D
:40304000FEE79F4B19683B1C173389228A5C1A708CE09B4B18683B1C17331A781821131C5B009B189B00C3185B181978944B1C68FB1D1A781820131C5B009B189B00E31837
:403080001B181B78994261D18D4B18683B1C17331A781821131C5B009B189B00C3185B185B781A1C0F231340082B2FD0844B1868FB1D1A781821131C5B009B189B00C318AE
:4030C0005B185B781A1C0F231340072B3EDC7C4B18683B1C17331A781821131C5B009B189B00C3185B185B78191C754B1C68FB1D1A781820131C5B009B189B00E3181B1876
:403100005B780A1C5A400F2313401FD16C4B1B681A1C89323B1C17331B78101C191C00F031F9674B19683B1C17331A78131C5B009B189B001033CB18181C222101F0AAF83F
:40314000031CFB60FB68002B17D0FEE75C4B1C683B1C17331A78391C17311820131C5B009B189B00E3181B189B780B703B1C17331B78092B00D86CE700E0C046504B186820
:40318000FB1D1A781821131C5B009B189B00C3185B185B781A1C0F231340072B1EDC484B1968474B1A688C23D058454B1D68FB1D1A781824131C5B009B189B00EB181B1943
:4031C0005B781A1C0F2313400122141C9C40231CDB431A1C02408C23CA501AE0384B1968374B1A688C23D058354B1D68FB1D1A781824131C5B009B189B00EB181B191B780E
:403200000122141C9C40231CDB431A1C02408C23CA502B4B1968FB1D1A78131C5B009B189B00CB18143300221A60254B1868FB1D1A781821131C5B009B189B00C3185B1889
:4032400000221A701E4B1868FB1D1A781821131C5B009B189B00C3185B1808225A70184B1B681A1C8A32FB1D1B78101C191C00F089F8134B1C68FB1D1A78114B1968882353
:40328000C95C1820131C5B009B189B00E3181B180A1C9A700A4B1A68F91D88230978D154074B1B689033181C332100F0F3FF031CBB60BB68002B00D0FEE7BD4606B0B0BDD8
:4032C0001001002090B583B000AF224B1B681033181C0021782202F03EF91E4B1A6888230021D154FB1D00221A7022E0194B1C68FB1D1A78FB1D1B780133D9B21820131C26
:403300005B009B189B00E3181B180A1C9A70114B1868FB1D1A781821131C5B009B189B00C3185B1808225A70FB1DFA1D127801321A70FB1D1B78092BD8D9064B1A688A2327
:403340000A21D154034B1A6889230A21D154BD4603B090BD1001002080B500AF084B1A6888230021D154064B1A6889230A21D154034B1A688A230A21D154BD4680BDC04671
:4033800010010020B0B584B000AF78600A1CFB1C1A70394B18687B681B781A1C1821131C5B009B189B00C3185B189B780A2B03D17B680A221A705BE07B681B78FA1C1278E0
:4033C0009A420ED12C4B1868FB1C1A781821131C5B009B189B00C3185B189A787B681A7046E03B1C0F337A6812781A703BE0224B18683B1C0F331A781821131C5B009B1836
:403400009B00C3185B189B78FA1C12789A421AD1194B1C683B1C0F331A78174B1D68FB1C197818200B1C5B005B189B00EB181B1899781820131C5B009B189B00E3181B183A
:403440000A1C9A7014E00C4B1C683B1C0F331A78391C0F311820131C5B009B189B00E3181B189B780B703B1C0F331B78092BBED9BD4604B0B0BDC0461001002090B585B0F5
:4034800000AF0A1CBB1D011C19807B1D1A70694B19683B1C0F338A228A5C1A70BEE0654B18683B1C0F331A781821131C5B009B189B00C3185B185B78DBB25BB2002B05DACE
:4034C000BB1DBA1D11885C4A0A401A80594B18683B1C0F331A781821131C5B009B189B00C3185B181B780F2B28D1524B18683B1C0F331A781821131C5B009B189B00C31852
:403500005B185B787A1D12789A4217D1BB1D1A884A4B9A4209D0BB1D1A88494B9A4204D0BB1D1A88474B9A4208D1424B1A68391C0F31AC230978D154002377E03D4B186882
:403540003B1C0F331A781821131C5B009B189B00C3185B181B78083B3B4ADB00D3185B88BA1D12889A4249D17B1D1978314B1C683B1C0F331A781820131C5B009B189B00F2
:40358000E3181B185B781A1C0F231340994203D17B1D1B78072B11D9264B18683B1C0F331A781821131C5B009B189B00C3185B185B781A1C0F231340082B1FD11D4B196844
:4035C0001C4B1C683B1C0F331A781820131C5B009B189B00E3181B181B78083B1A4ADB00D31804331A68B023CA50124B1A68391C0F31AC230978D154002317E00D4B1C68F2
:403600003B1C0F331A78391C0F311820131C5B009B189B00E3181B189B780B703B1C0F331B78092B00D83AE703235B42181CBD4605B090BD10010020FFFDFFFF0A10000064
:403640000B1000000B1200001459000080B582B000AF114B1A6893230121D1540E4B1B689433181C332100F015FE031C7B607B68002B00D0FEE7084B1B689533181C1121C5
:4036800000F008FE031C3B603B68002B00D0FEE7BD4602B080BDC0461001002080B582B000AF114B1A6893230021D1540E4B1B689433181C002100F0EDFD031C7B607B680F
:4036C000002B00D0FEE7084B1B689533181C002100F0E0FD031C3B603B68002B00D0FEE7BD4602B080BDC0461001002080B5CEB000AFF8607A601A1C644B9C204000C01976
:40370000C3181970624B9C214900C919CB181A7092225200BB185D4A9C204000C019821812781A70922149007B18A4204000C01902689A60922149007B18A02040003A186F
:4037400012885A80922149007B18514A9C204000C019821812785A70922149007B18A2204000C01902685A60494B9C214900C919CB181A78454B9C204000C019C3181B7896
:40378000D318FE2B02DD01235B427AE03B1C1433181C0021FF2201F0DEFE3C4B9C214900C919CB181B78391C1431FA68081C111C1A1C01F0C7FE364B9C225200D219D31895
:4037C0001B78002B1CD0314B9C204000C019C3181B783A1C1432D3189A214900C9190B602B4B9C225200D219D3181B789A204000C01901687A68081C111C1A1C01F0A2FE63
:40380000234B9C214900C919CB181B789AB21F4B9C204000C019C3181B789BB2D3189AB28A2149007B181A808A225200BB1800225A808A2040003B183A1C14329A608A21D3
:4038400049007B180022DA60124992235B00FA188A2040003B18081C111C1A1CFDF778FE031C98214900C9190B6098225200D2191368002B00D0FEE7922040003B181B88BD
:403880001BB2181CBD464EB080BDC046D3FEFFFFD2FEFFFF5859000080B588B004AF78600A1CFB1C1A700023FB60FB685B005B08FB607A68FB1C1B780021009100210191CB
:4038C000F9680291101C191C00220023FFF70EFF031C181CBD4604B080BDC04690B589B000AF78607B680833FB613D4B18683C4B1A68AC23D35C1A1C1821131C5B009B18A4
:403900009B00C3185B185B78DBB25BB2002B60DB3B1C1A33FA6952881A80314B1968304B1A68AC23D35C1A1C131C5B009B189B00CB1814331B687B617B695B68FA699268BD
:403940001A607B699B68FA6952681A60FB691B889AB27B691A807B69DA683B1C123312881A80391C12313B1C1A333A1C123212881B889CB290B2844200D9131C0B807B69A8
:40398000DB683A1C123212881A807B691969FB691A1C0C323B1C12331B88081C111C1A1C01F0D0FD0E4B19680D4B1A68AC23D35C1A1C131C5B009B189B001033CB18181C1A
:4039C000222100F067FC031CFB60FB68002B02D0FEE7C04600E0C046BD4609B090BDC04610010020B0B594B000AFF8607A601A1C3B1C0A3319803B1C09331A703B1C4F3363
:403A00000A221A703B1C28333A1C0A3212881A803B1C283300225A803B1C2833FA689A603B1C28330022DA603B1C38333A1C0A3212881A803B1C38333A1C093212789A701F
:403A40000B200821FFF7A8F9021C3B1C4F331A703B1C4F331B780A2B01D1534BA0E0534B1B689033181C33214422FF2300F022FC031CBB64BB6C002B00D0FEE74B4B1968EB
:403A80003B1C4F331A78131C5B009B189B00CB1814333A1C14321A603B1C09331B78032B1ED1424B1C683B1C4F331A783F4B1D683B1C4F33197818200B1C5B005B189B0083
:403AC000EB181B185B78802149420B43D9B21820131C5B009B189B00E3181B180A1C5A70324B1B689033181C332100F0D3FB031C7B647B6C002B00D0FEE72D493A1C383286
:403B00003B1C2833081C111C1A1CFDF721FD031C3B643B6C002B00D0FEE73B1C38331B88002B33D1214B19683B1C4F331A78131C5B009B189B001033CB18181C2221112261
:403B4000FF2300F0B7FB031CFB63FB6B002B00D0FEE73B1C14331B889AB23B1C38331A803B1C38331B88002B10D13B1C09331B78022B01D1042300E0102379683A1C143288
:403B80000432081C111C1A1C01F0DCFC3B1C4F331B78181CFFF740FA3B1C38331B881BB2181CBD4614B0B0BD30F8FFFF100100206059000080B586B000AF78607B680833F5
:403BC0007B61394B1B689033181C33214422FF2300F070FB031C3B613B69002B00D0FEE7314B1868304B1A68AC23D35C1A1C1821131C5B009B189B00C3185B185B78DBB289
:403C00005BB2002B14DA284B1968274B1A68AC23D35C1A1C131C5B009B189B00CB1814331A687B69101C191C142201F08BFC13E01D4B19681C4B1A68AC23D35C1A1C131CA3
:403C40005B009B189B00CB1814331A687B69101C191C082201F076FC134B1968124B1A68AC23D35C1A1C131C5B009B189B001033CB18181C222100F00DFB031CFB60FB68E1
:403C8000002B00D0FEE7084B1B689033181C332100F000FB031CBB60BB68002B00D0FEE7C046BD4606B080BD1001002080B582B000AF786039607B68DA683B681A607B6802
:403CC0009A683B685A607B685A883B681A817B689A883B685A817B68DA883B689A817B681A693B681A61BD4602B080BD80B58CB000AF78607B680833FB62364B1B68002BC4
:403D00000DD0FA6A3B1C0C33101C191CFFF7CEFF304B1B683A1C0C32101C984756E02E4B1B689033181C33214422FF2300F0C2FA031CBB62BB6A002B00D0FEE7264B196807
:403D4000254B1A68AC23D35C1A1C131C5B009B189B00CB1814331B68002B2AD01E4B19681D4B1A68AC23D35C1A1C131C5B009B189B00CB1814331A68FB6A101C191C1422EB
:403D800001F0E0FB144B1968134B1A68AC23D35C1A1C131C5B009B189B001033CB18181C222100F077FA031C7B627B6A002B00D0FEE7094B1B689033181C332100F06AFA36
:403DC000031C3B623B6A002B00D0FEE7BD460CB080BDC046140100201001002080B598B000AFF8607A603B603B1C0B330A1C1A703A1C4832714B111C1A1C0423081C111C75
:403E00001A1C01F09FFB3B1C5F330A221A70FB681B69002B05D16A4B181CFEF78FFF031CC8E03B1C0B331B78022B07D13B1C4833644A1A80FB681B69BB630DE03B1C4833FC
:403E4000614A1A80FB6810333A1C28321032101C191C102201F076FBFB681A683B1C28331A60FB689A883B1C28339A80FB68DA883B1C2833DA80FB689A683B1C28339A602C
:403E8000FB68DA683B1C2833DA603B68002B03D04E4B3A681A603BE00D200821FEF77CFF021C3B1C5F331A703B1C5F331B780A2B01D1474B7EE0474B1B689033181C3321D6
:403EC0004422FF2300F0F6F9031CBB65BB6D002B00D0FEE73F4B19683B1C5F331A78131C5B009B189B00CB1814333A1C14321A60364B00221A60374B1B689033181C332109
:403F000000F0C8F9031C7B657B6D002B00D0FEE73A1C48323B1C2833101C191C0022FDF717FB031C3B653B6D002B00D0FEE73B1C28331B88002B04D03B1C28331B88012BE2
:403F40002CD13B68002B32D1224B19683B1C5F331A78131C5B009B189B001033CB18181C22211122FF2300F0A5F9031CFB64FB6C002B00D0FEE73B1C14331B88002B06D1AA
:403F80003A1C14327B68101C191CFFF78FFE3B1C5F331B78181CFFF73FF808E03B68002B05D13B1C5F331B78181CFFF735F83B1C28331B88181CBD4618B080BD6459000014
:403FC000239C0000219CFFFF219EFFFF1401002030F8FFFF1001002080B58EB000AF78607B681B7803339BB2032293439AB23B1C0C331A803B1C0C3300225A807B685A685D
:404000003B1C0C339A603B1C0C330022DA607B681A783B1C1C331A707B685A783B1C1C335A707B689A687B685B78391C1C310231081C111C1A1C01F085FA0C493A1C1C32D4
:404040003B1C0C33081C111C1A1CFDF7CBFA031C7B637B6B002B00D0FEE73B1C1C331B889BB2181CBD460EB080BDC0466C59000080B594B000AF78607B68FB64FB6C1B88C8
:40408000584A934200D16CE0564A93420ADC564A93421CD0554A93421ED0C122520193420BD09BE0D1225201934206D0504A934208D0504A934205D090E07B68181CFFF7F4
:4040C00079FD8CE07B68181CFFF708FC87E07B68181CFFF70BFE82E0FB6C0833BB64BB6C04337B643B1C143301221A603B1C143340221A71FB6C1A1C1C323B1C14339A60A7
:404100003B1C203301221A60BB6C1A783B1C20331A713B1C20337A6C9A603B1C08337A6C9A603A1C20323B1C1433101C191CFCF7C9F93B1C14331A793B1C08331A703B1C4E
:4041400020331A793B1C08335A703B1C14339A683B1C08335A603B1C0833181CFFF73CFF3DE0FB6C08333B643B6C0433FB633B1C203302221A603B6C1A783B1C20331A71CA
:404180003B1C2033FA6B9A603B6C1B78FA6BD318FB633B6C5A783B1C20331A733B1C2033FA6B1A613B6C5B78FA6BD318FB633B6C9A783B1C20331A753B1C2033FA6B9A61B0
:4041C0003B1C143300221A603A1C20323B1C1433101C191CFCF776F9C04600E0FEE7BD4614B080BD30180000221800002E180000351A00003518000080B58AB000AF3B6090
:40420000FB1D1870BB1D19707B1D1A707B1D1B789BB203339BB2032293439AB23B1C0C331A803B1C0C3300225A803B1C0C333A689A603B1C0C330022DA60FB1D1B789AB23C
:404240003B1C1C335A807B1D1B789AB23B1C1C33DA80BB1D1B789AB23B1C1C339A800C493A1C1C323B1C0C33081C111C1A1CFDF76FF9031C7B627B6A002B00D0FEE73B1C46
:404280001C331B881BB2181CBD460AB080BDC0467459000080B582B000AF78600A1CFB1C1A707B68FA1C12781A700023181CBD4602B080BD80B582B000AF7860081C111CF4
:4042C0001A1CFB1C1870BB1C19707B1C1A7015E07B681B78FA1C12789A4204D17B68BA1C12781A700EE07B1C1B78FF2B04D07B1C7A1C1278013A1A7000F036F87B1C1B7805
:40430000002BE5D17B1C1B78002B01D1FF2300E00023181CBD4602B080BDC04680B586B000AFF860B9607A6000237B6112E07B69DA000C4BD3183B613B691B68002B06D109
:404340003B69BA685A603B69FA681A6005E07B6901337B617B69042BE9DD0023181CBD4606B080BDA002002080B584B000AF0023FB6020E0FB68DA00134BD318BB60BB6822
:404380001B687B607B68002B12D0104B1A689723D25C0E4B19689823CB5C9A4202D07B6800209847BB6800221A60BB6800225A60FB680133FB60FB68042BDBDD0023181C4D
:4043C000BD4604B080BDC046A00200201001002080B586B000AF78607B6808337B61304B1B689033181C33214422FF23FFF762FF031C3B613B69002B00D0FEE77B699B7886
:404400001A1C0F231340082B00DDFEE7244B1968234B1A68AC23D35C1A1C131C5B009B189B00CB1814331B687A6992789A701C4B19681B4B1A68AC23D35C1A1C131C5B00AE
:404440009B189B00CB1814331B687A6912881A80134B1968124B1A68AC23D35C1A1C131C5B009B189B001033CB18181C2221FFF711FF031CFB60FB68002B00D0FEE7084BAD
:404480001B689033181C3321FFF704FF031CBB60BB68002B00D0FEE7C046BD4606B080BD1001002080B586B000AF78607B6808337B61294B1B689033181C33214422FF2315
:4044C000FFF7F8FE031C3B613B69002B00D0FEE77B699B781A1C0F231340082B00DDFEE71D4B19681C4B1A68AC23D35C1A1C131C5B009B189B00CB1814331A687B69101C50
:40450000191C0C2201F01EF8134B1968124B1A68AC23D35C1A1C131C5B009B189B001033CB18181C2221FFF7B5FE031CFB60FB68002B00D0FEE7084B1B689033181C332123
:40454000FFF7A8FE031CBB60BB68002B00D0FEE7C046BD4606B080BD1001002080B586B000AF78607B6808337B61254B1B689033181C33214422FF23FFF79CFE031C3B6138
:404580003B69002B00D0FEE71D4B19681C4B1A68AC23D35C1A1C131C5B009B189B00CB1814331A687B69101C191C082200F0CAFF134B1968124B1A68AC23D35C1A1C131CA4
:4045C0005B009B189B001033CB18181C2221FFF761FE031CFB60FB68002B00D0FEE7084B1B689033181C3321FFF754FE031CBB60BB68002B00D0FEE7C046BD4606B080BDC1
:404600001001002080B5B2B000AFF860B9607A603B603B1C14331A1CB023101C00211A1C00F099FF3B1C103300221A603B1C103300229A703B1C10330422DA70BB68202BF7
:4046400000DDFEE7BB68DAB23B1C14335A70D020C0190368002B00D1E9E03B1C1033BB4A1A803B1C10339B781033DAB23B1C10339A70BB683A1C1432111C1031FA68081C5C
:40468000111C1A1C00F05EFF3B1C10339A78BB68DBB2D318DAB23B1C10339A703B68002B33D03B681B7A002B2FD03B681A783B1C14331A703B681B7A3F2B01D9A44B40E1B7
:4046C0003B681A7A3B1C14331A723B685B68002B00D1FEE73B1C14335B7810333A1C1432D1183B685A683B681B7A081C111C1A1C00F028FF3B1C10339A783B681B7AD318CF
:40470000DAB23B1C10339A7003E03B1C143300221A72D021C9190B68002B00D1FEE7D022D21913681A693B1C1433DA60D020C01903685A7B3B1C1433DA72D021C9190B6807
:404740001B79202B01D9824BFBE0D022D21913681A793B1C14335A72D020C01903681B79002B24D03B1C14335B781A1C3B1C14331B7AD31810333A1C1432D118D022D21932
:4047800013681A68D020C01903681B79081C111C1A1C00F0D7FE3B1C10339A78D021C9190B681B79D318DAB23B1C10339A70D022D21913681B7B202B01D9654BC1E0D020F3
:4047C000C01903681A7B3B1C14339A72D021C9190B681B7B002B00D184E03B1C14335B781A1C3B1C14331B7AD2183B1C14335B7AD31810333A1C1432D118D022D2191368B8
:404800009A68D020C01903681B7B081C111C1A1C00F098FE3B1C10339A78D021C9190B681B7BD318DAB23B1C10339A705AE03B1C1033484A1A803B1C10339B780933DAB287
:404840003B1C10339A70BB683A1C1432111C0931FA68081C111C1A1C00F074FE3B1C10339A78BB68DBB2D318DAB23B1C10339A703B68002B2ED03B681A783B1C14331A7083
:404880003B681B7A3F2B01D9314B5AE03B681A7A3B1C14331A723B1C10339A783B681B7AD318DAB23B1C10339A703B685B68002B18D03B1C14335B7809333A1C1432D118BB
:4048C0003B685A683B681B7A081C111C1A1C00F039FE07E03B1C143300221A723B1C143300221A707B68002B0CD0391C143102227B6889181A1C0623081C111C1A1C00F0EE
:4049000021FE07E03B1C14330233181C0021062200F021FE3A1C10323B1C1433101C191C0022FCF715FE031CC422D2191360C420C0190368002B00D0FEE73B1C14331B88A7
:404940001BB2181CBD4632B080BDC046828CFFFF2DF8FFFF808CFFFF80B500AF034B181CFEF7ECF9031C181CBD4680BD818C000080B588B000AF3A601A1CFB1D1870BB1D91
:4049800019707B1D1A707B1D1B789AB23B1C08331A803B1C083300225A803B1C08333A689A603B1C08330022DA603B1C1833FA1D12781A703B1C1833BA1D12789A703B1CCE
:4049C00018337A1D1278DA700B493A1C18323B1C0833081C111C1A1CFCF7BAFD031CFB61FB69002B00D0FEE73B1C18331B881BB2181CBD4608B080BD7C59000080B584B00F
:404A000000AF78607B68DAB23B1C08331A700B4A3B1C0833101C191C0022FCF799FD031CFB60FB68002B00D0FEE73B1C08331B881BB2181CBD4604B080BDC04688590000A3
:404A400080B584B000AF021CFB1D1A703B1C0833FA1D12781A700B4A3B1C0833101C191C0022FCF775FD031CFB60FB68002B00D0FEE73B1C08331B881BB2181CBD4604B028
:404A800080BDC046A459000080B58CB000AF7B603B1C0E3318803B1C0C3319803B1C0A331A803B1C0A331B8803339BB2032293439AB23B1C14331A803B1C143300225A805B
:404AC0003B1C14337A689A603B1C14330022DA603B1C24333A1C0E3212885A803B1C24333A1C0A321288DA803B1C24333A1C0C3212889A800B493A1C24323B1C1433081C9E
:404B0000111C1A1CFCF724FD031CFB62FB6A002B00D0FEE73B1C24331B881BB2181CBD460CB080BDA859000080B500AFFEE7C04680B586B000AF254B7B61254B3B61234B3F
:404B40007B61234B3B6132E03B691B68FB603B695B68BB603B699B683B6000237B600CE0FB681A68BB681A60BB680433BB60FB680433FB607B6804337B607A683B689A42CB
:404B8000EED13B69DB683B6000237B6008E0BB6800221A60BB680433BB607B6804337B607A683B689A42F2D13B6910333B617B695A1E9341DBB27A69013A7A61002BC3D189
:404BC00000F09AFCFBF7A2FCFEE7C04601000000D45C000080B582B000AF00237B600FE07B68032B04D8104B7A689200D35800E00E4B0F4A796889008B507B6801337B60D0
:404C00007B682F2BECD9FBF7AFFA0A4B00221A608023DB058022D205126801210A431A60BD4602B080BDC04600000000294B000000000020C000002080B582B000AF78602D
:404C400039607A683B68101C00211A1C00F083FCBD4602B080BDC04680B584B000AFF860B9607A60F968BA687B68081C111C1A1C00F068FCBD4604B080BDC04680B586B023
:404C800000AF7860396000233B6100237B612EE07B699B007A68D3181B68BB603B1C0F33BA681A70BB68FF229343BB6017E03B695B003A68D3181B781A1CBB68D3183A69A7
:404CC000520039688A1852781A703B6901333B613B1C0F333A1C0F321278013A1A703B1C0F331B78002BE2D17B6901337B617B69082BCDD9BD4606B080BDC04680B500AF3D
:404D0000BD4680BD80B500AF00F03EF8BD4680BD80B500AF054B054A1268802109060A431A6000F017F8BD4680BDC0460000064080B500AF064B1B78002B04D1FFF7E2FF4B
:404D4000034B01221A70FFF7E3FFBD4680BDC0461801002080B500AFBD4680BD80B582B000AF7860C046064B1A680F231340082BF9D0044B7A681A60BD4602B080BDC046D2
:404D8000080206404002064080B500AF174B184A1A60184B00221A60174B01221A60174B174A1A60174B07221A60174B00221A60164B01221A60164B114A1A60154B002205
:404DC0001A60154B00221A60144B00221A60144B00221A60134B00221A60134B00221A60124B00221A60BD4680BDC046000006400B00000240000640480006400003064064
:404E0000070000800403064010030640440006400002064004020640880E0640C80E0640480F0640080F0640C80F0640880F064080B584B000AF021CFB1D1A700E4B1B6887
:404E4000DAB23B1C0F3340218A431A70FB1D1B789B01DAB240231340D9B23B1C0F333A1C0F3212780A431A70034B3A1C0F3212781A60BD4604B080BD00030440000000008C
:404E80000230800804D0C0460138FDD1C046C0467047EFF3108072B6704780F31088704780B500AF044B044A1268802109060A431A60BD4680BDC04608010B4080B500AF91
:404EC000044B044A1268802109060A431A60BD4680BDC04604010B4090B587B000AF786030233B617B68022B00D8C8E07B68302B00D9C4E03C1C0B34FFF7CBFF031C237048
:404F00000023FB6011E0614AFB68D3181B781A1C5F4B19683F230B409A4203D1FB6803333B6105E0FB680133FB60FB682D2BEAD9584B1B78DBB21A1C7B689A420AD3564AF9
:404F40003B1C173312781A70544A3B1C163312781A703FE0524B1B78DBB21A1C7B689A420AD3504A3B1C173312781A704E4A3B1C163312781A702DE04C4B1B78DBB21A1CE7
:404F80007B689A420AD34A4A3B1C173312781A70484A3B1C163312781A701BE0464B1B78DBB21A1C7B689A420AD3444A3B1C173312781A70424A3B1C163312781A7009E0DC
:404FC000404A3B1C173312781A703F4A3B1C163312781A703B692A2B0BD97B682A2B08D92B4B2A4A527D1A600520FFF749FF18233B617A683B699A421DD9344B7A6832499E
:4050000052181278D2B21A60314B3A1C173212781A60304B3A1C163212781A60052000F0A1F81B4B7A68033A18498A5C1A600520FFF726FF1CE0164B7A68033A13498A5C50
:405040001A600520FFF71CFF204B7A681E4952181278D2B21A601E4B3A1C173212781A601C4B3A1C163212781A60052000F07AF83B1C0B331B78181CFFF70FFF02E00020DC
:4050800000F042F8BD4607B090BDC046805C00002CFF0B40C0F1FF0FC1F1FF0FC2F1FF0FC3F1FF0FC4F1FF0FC5F1FF0FC6F1FF0FC7F1FF0FC8F1FF0FC9F1FF0FCAF1FF0FFB
:4050C000CBF1FF0FCCF1FF0FCDF1FF0F28FF0B401CFF0B4020FF0B4080B582B000AF7860074B1B68002B01DBFFF7E8FE054B054A12687968C9430A401A60BD4602B080BDAB
:4051000004010B4010020B4080B582B000AF021CFB1D1A7001BEBD4602B080BD80B582B000AF786008E00C4B1B68181CFFF7A8FE7B680A4A9B187B607A6880231B029A4278
:40514000F1D8074B1B687A685343181CFFF798FEBD4602B080BDC046DC0000200080FFFFD400002080B582B000AF021CBB1D1A80BB1D1B88044A12785343181CFFF780FEBC
:40518000BD4602B080BDC046D800002080B500AF00F062F8054B181C00F020F8032000F029F800F04FF8BD4680BDC046B151000080B500AF074B1B68002B09D0064B1B78F1
:4051C000002B05D1034B1B680020984700F04EF8BD4680BD080100202401002080B582B000AF7860024B7A681A64BD4602B080BD0000002090B585B000AF021CFB1D1A7064
:405200000623FB603C1C0B34FFF743FE031C23700B4B0B4A1268C021101C8843011CFA1D1078FA68041C9440221C0A431A603B1C0B331B78181CFFF730FEBD4605B090BDD1
:4052400000E400E080B500AF024B01221A60BD4680BDC04600E100E080B500AF024B01221A60BD4680BDC04680E100E080B500AF024B01221A60BD4680BDC04680E200E0EA
:4052800080B500AF064B1B78002B04D100F00AF8034B01221A7000F023F8BD4680BDC0462001002080B500AF084B72221A70084B20221A70074B07221A70074B48221A70E8
:4052C000064B02221A70BD4680BDC04683000F4082000F4020000F4030000F4081000F4090B583B000AFFC1DFFF7D3FD031C2370104B104A1278D2B220210A43D2B21A70F1
:405300000D4B0D4A1278D2B210210A43D2B21A700A4B0A4A1278D2B210210A43D2B21A7000F0D0F8FB1D1B78181CFFF7B6FDBD4603B090BD93000F4092000F4091000F40FB
:4053400090B583B000AFFC1DFFF7A3FD031C2370104B104A1278D2B220218A43D2B21A7000F0BEF80C4B0C4A1278D2B210218A43D2B21A70094B094A1278D2B210218A43A6
:40538000D2B21A70FB1D1B78181CFFF786FDBD4603B090BD93000F4092000F4091000F4080B582B000AF054AFB1D12781A70FB1D1B78181CBD4602B080BDC04643000F40E7
:4053C00080B582B000AF064B1B78D9B2FB1D7F220A401A70FB1D1B78181CBD4602B080BD62000F4098B500AFFFF7EAFF031C1B029CB2FFF7D5FF031C221C13439BB29BB29D
:40540000181CBD4698BDC04690B583B000AFFC1DFFF73FFD031C23700B4B0B4A1278D2B201210A43D2B21A70074B074A1278D2B201218A43D2B21A70FB1D1B78181CFFF7FD
:405440002CFDBD4603B090BD93000F4080B582B000AF021CFB1D1A70C046074B1B78DBB21A1C04231340F8D1044BFA1D12781A70BD4602B080BDC04661000F4041000F40A5
:4054800090B583B000AFFC1DFFF703FD031C23700B4B0B4A1278D2B201210A43D2B21A70074B074A1278D2B201218A43D2B21A70FB1D1B78181CFFF7F0FCBD4603B090BD5C
:4054C00091000F4080B500AF044B044A1268802109060A431A60BD4680BDC0460000024080B500AF034B034A1268520052081A60BD4680BD0000024070B50E4B0E4D002434
:40550000E81A85101E1CAC4204D0A100725890470134F8E700F0CCFB0849094A0E1C541AA5100024AC4204D0A300F05880470134F8E770BDBC5C0000BC5C0000BC5C0000B9
:40554000C45C000010B50023934203D0CC5CC4540133F9E710BD00B58218031C934202D019700133FAE700BD0023C25C0133002AFBD1581E70470000000000002044657613
:4055800069636520646973636F6E6E65637465642066726F6D20746865204150206F6E206170706C69636174696F6E27732072657175657374200A0D0000000020446576D7
:4055C00069636520646973636F6E6E65637465642066726F6D20746865204150206F6E20616E204552524F522E2E2121200A0D00205B574C414E204556454E545D20556E87
:405600006578706563746564206576656E74200A0D000000205B4E4554415050204556454E545D20556E6578706563746564206576656E74200A0D00205B4854545020458F
:4056400056454E545D20556E6578706563746564206576656E74200A0D000000205B47454E4552414C204556454E545D200A0D00205B534F434B204556454E545D20556EA6
:405680006578706563746564206576656E74200A0D000000204661696C656420746F20636F6E666967757265207468652064657669636520696E2069747320646566617558
:4056C0006C74207374617465200A0D002044657669636520697320636F6E6669677572656420696E2064656661756C74207374617465200A0D000000204661696C656420A7
:40570000746F2073746172742074686520646576696365200A0D00002044657669636520737461727465642061732053544154494F4E200A0D000000204661696C65642097
:40574000746F2065737461626C69736820636F6E6E656374696F6E20772F20616E204150200A0D0020436F6E6E656374696F6E2065737461626C697368656420772F20417B
:405780005020616E64204950206973206163717569726564200A0D002050696E67696E672E2E2E21200A0D002044657669636520636F756C646E277420636F6E6E65637464
:4057C00020746F204C414E200A0D00002044657669636520636F756C646E277420636F6E6E65637420746F2074686520696E7465726E6574200A0D00204465766963652006
:405800007375636365737366756C6C7920636F6E6E656374656420746F20746865204C414E20616E6420696E7465726E6574200A0D000000000000006363333230306465AA
:405840006D6F00007777772E74692E636F6D00000A0D0A0D000000002047657474696E67207374617274656420776974682073746174696F6E206170706C69636174696FF4
:405880006E202D2056657273696F6E2000000000312E302E300000000A0D2A2A2A2A2A2A2A2A2A2A2A2A2A2A2A2A2A2A2A2A2A2A2A2A2A2A2A2A2A2A2A2A2A2A2A2A2A2AC7
:4058C0002A2A2A2A2A2A2A2A2A2A2A2A2A2A2A2A2A2A2A2A2A2A2A2A2A2A2A2A2A2A2A2A2A2A2A2A2A2A2A2A2A0A0D0073840404648408046584040866840808B7840804AE
:405900006B840804FFEEDDBB21433412FFEEDDBB6587785608000310A544000009000610D14300000A0007105D4500000B002018B53B00000C003518DD3800000D0022181C
:40594000ED3C00000E007300111000000A9C0404619C0404719C0404349C0C04359C0404209C0404000020040B9C08042F9C1804279C08083284080433840808868C0404E3
:40598000878C0404848C04B4858C04048C8C04046C8C50046D8C04046F8C0404AF8C004CB28C3804B48C0404B58C0804B68C080800300F40800200330F40000100400F4080
:4059C0000004000080320F40FC5B00008000000003000F4065300F403D310F400C320F403E330F4008400F4007410F4004430F4002600F40810F82388372008004E707273E
:405A000009080C220D300E510F031001120E184419161A311D301F0524E725023007310832183330346035083680370739083B803E043F05400345054610480949FF4A079E
:405A40004BFF4C404D204EF04F055008580459045A045F01604061A862406320812082038409851486F08741889C890D8A228B408C308E4C918098149D419F1AA504A74A75
:405A8000A880A90DAA10AC2CAD47AED1B01FB180B340B4E0B520B71FBA20BF15C045C101C5EBC6C0C80BC9FFCAFFCBFFCEF0CF44D00CD401D804D904DA04DB04DF01E6C07A
:405AC000EA40EB02000A01800404051107010A440F0811041580160818101A451D111F1020042144234025012684270929042A082C012E802F143110328035013680382429
:405B000039803A803C043D013E103F2041044401470149044D014F48501057105C405D015E105F08804082048D01C0FDC24AC4C4CA72CC9CCEEED092D210D6F0E2100201A9
:405B40001A012E02300232013A203E045418560458045B045F0100040201034005010A640B020F0410A812021601180419221A201B801E081F26210222062305288029203C
:405B80002BA2308031063210382839803A01409441404201434049054A045A085D0267896805690470BC87408D048E048F019010924595049A01A405A980AA01AF04C01DFB
:405BC000C24FC48FCA0FCC0FCE0FD00FD204D682D8B00A400F0260106F028C10C290D840DA808702A702AA40AF01E210E820EC1066088E08D801E008100111010004F300DE
:405C0000F3180C000008000041000003C33C00420F00F080823C0041FF10000008000080047F00000C6700181C00E304C01F2C200F401C80002028020000004421060400CB
:405C400003EC000003FFFFFF62A0F0410C00000000000212040404040000000100000000000040020010301000101012000000000000000000000000000000000400000009
:405C8000030405060708090A0B0C0E0F101112131415161718191B1C1D1E1F2021222325262728292A2B2E2F3031323334350000F8B5C046F8BC08BC9E467047B503000076
:405CC000D54B0000F8B5C046F8BC08BC9E4670478D030000E85C0000C800002018000000E80100000000000000000000C0F1FF0F00366E01C05D0000180000000000E02E5A
:405D00000000000000000000000000000000000000000000000000000000000000000000000000000000000000000000000000000000000000000000000000000000000063
:405D40000000000000000000000000000000000000000000000000000000000000000000000000000000000000000000000000000000000000000000000000000000000023
:405D800000000000000000000000000000000000000000000000000000000000000000000000000000000000000000000000000000000000000000000000000000000000E3
:405DC00000000000000000000000000000000000000000000000000000000000000000000000000000000000000000000000000000000000000000000000000000000000A3
:0200000490303A
:02000000903E30
:0200000490402A
:200000000000000000000000000000000000000000000000000000000000000000000000E0
:0200000490501A
:0C000000000204C81193110104E6A1D114
:0200000490600A
:0100000001FE
:00000001FF